{
    "result": {
        "hex": "01000000029622ccf9b5882f6629882c7fd275e3cb718d9b6cac7c29ccb170a0e177fef35a010000008b483045022100af0e5ce45da0c0ab63f0a881070605bdbb960856012426df4b5940d59d2e44be02207f1f8b660b08e518b19d9f852a741c9a5ba4f2430c97b0af14a193d62df480f30141048ec9c2804d6197cdc0cbc2b55d01b0976a3bd961195dfa2183aa22dd9c2c7d9630b29121ec67d7249f5c9223251713b34d051524c02760b77269eeb2f99ad110ffffffff9622ccf9b5882f6629882c7fd275e3cb718d9b6cac7c29ccb170a0e177fef35a000000008a47304402201defb13f2c1e644ef2406d951ac656b0a29378770b4ec144c8453cd0d81d6247022024a769bdf79f1dd883c078d3c58789c0a57acdd069db9e3fcf4e35aabfa3cdaa0141043c6f168436f518ecd839bd65fb71b0d6538f63232a4626575975742dffd697ff1068145d49f16b184e478a1a999e76bf4d42e6e9fde1ebfcbbb365966072ee5fffffffff0210270000000000001976a91400d5576be6388c027946e5ca4cb800f79fd45abc88ac69d71f11000000001976a914a76aa06ef527de504de2091942e607059307e3d888ac00000000",
        "txid": "8fd000ec33b97812fd70bfb5969118031824cde5f86d4d87a74b1ab99b71cfa3",
        "version": 1,
        "locktime": 0,
        "vin": [{
            "txid": "5af3fe77e1a070b1cc297cac6c9b8d71cbe375d27f2c8829662f88b5f9cc2296",
            "vout": 1,
            "scriptSig": {
                "asm": "3045022100af0e5ce45da0c0ab63f0a881070605bdbb960856012426df4b5940d59d2e44be02207f1f8b660b08e518b19d9f852a741c9a5ba4f2430c97b0af14a193d62df480f301 048ec9c2804d6197cdc0cbc2b55d01b0976a3bd961195dfa2183aa22dd9c2c7d9630b29121ec67d7249f5c9223251713b34d051524c02760b77269eeb2f99ad110",
                "hex": "483045022100af0e5ce45da0c0ab63f0a881070605bdbb960856012426df4b5940d59d2e44be02207f1f8b660b08e518b19d9f852a741c9a5ba4f2430c97b0af14a193d62df480f30141048ec9c2804d6197cdc0cbc2b55d01b0976a3bd961195dfa2183aa22dd9c2c7d9630b29121ec67d7249f5c9223251713b34d051524c02760b77269eeb2f99ad110"
            },
            "sequence": 4294967295
        }, {
            "txid": "5af3fe77e1a070b1cc297cac6c9b8d71cbe375d27f2c8829662f88b5f9cc2296",
            "vout": 0,
            "scriptSig": {
                "asm": "304402201defb13f2c1e644ef2406d951ac656b0a29378770b4ec144c8453cd0d81d6247022024a769bdf79f1dd883c078d3c58789c0a57acdd069db9e3fcf4e35aabfa3cdaa01 043c6f168436f518ecd839bd65fb71b0d6538f63232a4626575975742dffd697ff1068145d49f16b184e478a1a999e76bf4d42e6e9fde1ebfcbbb365966072ee5f",
                "hex": "47304402201defb13f2c1e644ef2406d951ac656b0a29378770b4ec144c8453cd0d81d6247022024a769bdf79f1dd883c078d3c58789c0a57acdd069db9e3fcf4e35aabfa3cdaa0141043c6f168436f518ecd839bd65fb71b0d6538f63232a4626575975742dffd697ff1068145d49f16b184e478a1a999e76bf4d42e6e9fde1ebfcbbb365966072ee5f"
            },
            "sequence": 4294967295
        }],
        "vout": [{
            "value": 0.00010000,
            "n": 0,
            "scriptPubKey": {
                "asm": "OP_DUP OP_HASH160 00d5576be6388c027946e5ca4cb800f79fd45abc OP_EQUALVERIFY OP_CHECKSIG",
                "hex": "76a91400d5576be6388c027946e5ca4cb800f79fd45abc88ac",
                "reqSigs": 1,
                "type": "pubkeyhash",
                "addresses": ["115QaE9JNwbmDqTbZHarkf5XZT7YXWXDHw"]
            }
        }, {
            "value": 2.87299433,
            "n": 1,
            "scriptPubKey": {
                "asm": "OP_DUP OP_HASH160 a76aa06ef527de504de2091942e607059307e3d8 OP_EQUALVERIFY OP_CHECKSIG",
                "hex": "76a914a76aa06ef527de504de2091942e607059307e3d888ac",
                "reqSigs": 1,
                "type": "pubkeyhash",
                "addresses": ["1GGDab7h5FQFBepc8UVh9W4v9HUDDo4n8L"]
            }
        }],
        "blockhash": "0000000000000001811dbd437eff8a72b47d7df5ad106be900a218a1bc086c94",
        "confirmations": 346,
        "time": 1391193292,
        "blocktime": 1391193292
    },
    "error": null,
    "id": "curltest"
}
