{
    "result": {
        "hex": "01000000074d4d1a0851f731eb1d47d18051a1635865df5c20fd261f3b5b0643d656ad8ebb000000006a473044022061754fc9de54a2178d165f355ea99e2dafb658a1a5b28c8e0f110f5c17b32c1502202f71e5e6b6b6fa74ce6717eabc89839c3905515e83cef6d8540490fa14ee641f0121020319cdb5dc3c591db728e4fdf7a66793e7844cfd6d01e4b733bcee870eabc272ffffffffd82928ce5cf24f0631e868594192e7ffee170b986d3f825468e461c51c2781d4000000006c493046022100d647747d83357624e1de542b0bd0cf15e79988170e8c4c820287efa6da63118a022100b24d3b273cf3048a96df188578a3f4df482750c13413433c792dc3d977bcd79c012103ba2d10590f19c5ff7192a11d9526dd2f31d9ab07bd7e7240083808ba61613155ffffffff850d1aa7f3e8ead9344a506cfd65b421576858f35152d1a90f3d450bb80f2b27000000006b48304502203b7f922f8c101767532b7e0060a17c909dda8eeaf630e00b74001ebeea1de9e5022100a565b4c98e8eb89ea1af9bbb874f379ae377d8974509e7b72b144554c1a0347901210320d578e6d16fda6780ed3c15e24f38b0b0fd854771786a972fa25aff8045d082ffffffffe8ef7d0be0ba79be093a7bce8812d35799ea2b67bda23ff01771342ca88f0818000000006b483045022100ce9f34a677fa351ae8601b5c8115d2b460f9ab72b0941103b12a5013d9d356c5022075295e71069f87a81b8200816c5f5706c33da4c2a4e731eb958e818cb9885a07012102c2a3a35a22b6be6fc02bce28e27fa101c01162f73f081246ec0ef7c68473b9e4ffffffff744fe979aa93383fc2cb593f41235a5e92049ee1b995d3f258ff7185c782b9ad000000006a4730440220041891b63afae8543fd86c89ed6cc26718ad7ca6f4b6e490f2fa56d4c1516e01022055e83eab62bec7725486e302eb82483c0aeedb468a7165a24309237990b2c907012103ba2d10590f19c5ff7192a11d9526dd2f31d9ab07bd7e7240083808ba61613155ffffffffadc6d40cc5e9b412e9b9b302b0a141257f67beefabe74b36bf1fd5434ff7d268000000006c493046022100cc15bfcf2c5a2a16a27e449e7df3f311d2bd40d4ebb6cfd92bfc5656e7cffe22022100d9cdc3b91db29d610d390f8fdc7626afdf9a1be5dd765b3eb1c81d7a26e9eb2f012103371e29ccccaa7975007b08a14e9f6e13d3a0cb70cfb476f77c7a2772431c94c2ffffffffaefc9f8e610356da111ba6abb73cce015a2389502e85396d0ccecd5151f7297c010000006b48304502206df489baf19145fabeba2b43723f4f87ef1ca3ef2ca07c4b835404b61ded469d0221008fe895cc2d8ea30bb9bd2de5bdfcc4a7724e48b3333ac667062922118d5b75170121038b15d9a2660cf662d912bbe48e7b968d6be089882f10441b0c7743720750fc6bffffffff0200688909000000001976a9149186f93fe66ae17c22d3741ca47826f0ea25ea3288ace6431c00000000001976a914d92de533b9e4798ba1f283b0e6fbb3394ec6e12e88ac00000000",
        "txid": "d055ca8afe3ce9e692f7df70210b52755e51d067de0e7085da73b9d28ba14876",
        "version": 1,
        "locktime": 0,
        "vin": [{
                "txid": "bb8ead56d643065b3b1f26fd205cdf655863a15180d1471deb31f751081a4d4d",
                "vout": 0,
                "scriptSig": {
                "asm": "3044022061754fc9de54a2178d165f355ea99e2dafb658a1a5b28c8e0f110f5c17b32c1502202f71e5e6b6b6fa74ce6717eabc89839c3905515e83cef6d8540490fa14ee641f01 020319cdb5dc3c591db728e4fdf7a66793e7844cfd6d01e4b733bcee870eabc272",
                "hex": "473044022061754fc9de54a2178d165f355ea99e2dafb658a1a5b28c8e0f110f5c17b32c1502202f71e5e6b6b6fa74ce6717eabc89839c3905515e83cef6d8540490fa14ee641f0121020319cdb5dc3c591db728e4fdf7a66793e7844cfd6d01e4b733bcee870eabc272"
                },
                "sequence": 4294967295
                }, {
                "txid": "d481271cc561e46854823f6d980b17eeffe792415968e831064ff25cce2829d8",
                "vout": 0,
                "scriptSig": {
                "asm": "3046022100d647747d83357624e1de542b0bd0cf15e79988170e8c4c820287efa6da63118a022100b24d3b273cf3048a96df188578a3f4df482750c13413433c792dc3d977bcd79c01 03ba2d10590f19c5ff7192a11d9526dd2f31d9ab07bd7e7240083808ba61613155",
                "hex": "493046022100d647747d83357624e1de542b0bd0cf15e79988170e8c4c820287efa6da63118a022100b24d3b273cf3048a96df188578a3f4df482750c13413433c792dc3d977bcd79c012103ba2d10590f19c5ff7192a11d9526dd2f31d9ab07bd7e7240083808ba61613155"
                },
                "sequence": 4294967295
                }, {
                "txid": "272b0fb80b453d0fa9d15251f358685721b465fd6c504a34d9eae8f3a71a0d85",
                "vout": 0,
                "scriptSig": {
                "asm": "304502203b7f922f8c101767532b7e0060a17c909dda8eeaf630e00b74001ebeea1de9e5022100a565b4c98e8eb89ea1af9bbb874f379ae377d8974509e7b72b144554c1a0347901 0320d578e6d16fda6780ed3c15e24f38b0b0fd854771786a972fa25aff8045d082",
                "hex": "48304502203b7f922f8c101767532b7e0060a17c909dda8eeaf630e00b74001ebeea1de9e5022100a565b4c98e8eb89ea1af9bbb874f379ae377d8974509e7b72b144554c1a0347901210320d578e6d16fda6780ed3c15e24f38b0b0fd854771786a972fa25aff8045d082"
                },
                "sequence": 4294967295
                }, {
                "txid": "18088fa82c347117f03fa2bd672bea9957d31288ce7b3a09be79bae00b7defe8",
                "vout": 0,
                "scriptSig": {
                "asm": "3045022100ce9f34a677fa351ae8601b5c8115d2b460f9ab72b0941103b12a5013d9d356c5022075295e71069f87a81b8200816c5f5706c33da4c2a4e731eb958e818cb9885a0701 02c2a3a35a22b6be6fc02bce28e27fa101c01162f73f081246ec0ef7c68473b9e4",
                "hex": "483045022100ce9f34a677fa351ae8601b5c8115d2b460f9ab72b0941103b12a5013d9d356c5022075295e71069f87a81b8200816c5f5706c33da4c2a4e731eb958e818cb9885a07012102c2a3a35a22b6be6fc02bce28e27fa101c01162f73f081246ec0ef7c68473b9e4"
                },
                "sequence": 4294967295
                }, {
                "txid": "adb982c78571ff58f2d395b9e19e04925e5a23413f59cbc23f3893aa79e94f74",
                "vout": 0,
                "scriptSig": {
                "asm": "30440220041891b63afae8543fd86c89ed6cc26718ad7ca6f4b6e490f2fa56d4c1516e01022055e83eab62bec7725486e302eb82483c0aeedb468a7165a24309237990b2c90701 03ba2d10590f19c5ff7192a11d9526dd2f31d9ab07bd7e7240083808ba61613155",
                "hex": "4730440220041891b63afae8543fd86c89ed6cc26718ad7ca6f4b6e490f2fa56d4c1516e01022055e83eab62bec7725486e302eb82483c0aeedb468a7165a24309237990b2c907012103ba2d10590f19c5ff7192a11d9526dd2f31d9ab07bd7e7240083808ba61613155"
                },
                "sequence": 4294967295
                }, {
                "txid": "68d2f74f43d51fbf364be7abefbe677f2541a1b002b3b9e912b4e9c50cd4c6ad",
                "vout": 0,
                "scriptSig": {
                "asm": "3046022100cc15bfcf2c5a2a16a27e449e7df3f311d2bd40d4ebb6cfd92bfc5656e7cffe22022100d9cdc3b91db29d610d390f8fdc7626afdf9a1be5dd765b3eb1c81d7a26e9eb2f01 03371e29ccccaa7975007b08a14e9f6e13d3a0cb70cfb476f77c7a2772431c94c2",
                "hex": "493046022100cc15bfcf2c5a2a16a27e449e7df3f311d2bd40d4ebb6cfd92bfc5656e7cffe22022100d9cdc3b91db29d610d390f8fdc7626afdf9a1be5dd765b3eb1c81d7a26e9eb2f012103371e29ccccaa7975007b08a14e9f6e13d3a0cb70cfb476f77c7a2772431c94c2"
                },
                "sequence": 4294967295
                }, {
                "txid": "7c29f75151cdce0c6d39852e5089235a01ce3cb7aba61b11da5603618e9ffcae",
                "vout": 1,
                "scriptSig": {
                "asm": "304502206df489baf19145fabeba2b43723f4f87ef1ca3ef2ca07c4b835404b61ded469d0221008fe895cc2d8ea30bb9bd2de5bdfcc4a7724e48b3333ac667062922118d5b751701 038b15d9a2660cf662d912bbe48e7b968d6be089882f10441b0c7743720750fc6b",
                "hex": "48304502206df489baf19145fabeba2b43723f4f87ef1ca3ef2ca07c4b835404b61ded469d0221008fe895cc2d8ea30bb9bd2de5bdfcc4a7724e48b3333ac667062922118d5b75170121038b15d9a2660cf662d912bbe48e7b968d6be089882f10441b0c7743720750fc6b"
                },
                "sequence": 4294967295
                }],
        "vout": [{
                 "value": 1.60000000,
                 "n": 0,
                 "scriptPubKey": {
                 "asm": "OP_DUP OP_HASH160 9186f93fe66ae17c22d3741ca47826f0ea25ea32 OP_EQUALVERIFY OP_CHECKSIG",
                 "hex": "76a9149186f93fe66ae17c22d3741ca47826f0ea25ea3288ac",
                 "reqSigs": 1,
                 "type": "pubkeyhash",
                 "addresses": ["mtnRy147pyP9CYDgvQKfcxcivGMySArSwU"]
                 }
                 }, {
                 "value": 0.01852390,
                 "n": 1,
                 "scriptPubKey": {
                 "asm": "OP_DUP OP_HASH160 d92de533b9e4798ba1f283b0e6fbb3394ec6e12e OP_EQUALVERIFY OP_CHECKSIG",
                 "hex": "76a914d92de533b9e4798ba1f283b0e6fbb3394ec6e12e88ac",
                 "reqSigs": 1,
                 "type": "pubkeyhash",
                 "addresses": ["n1KHuYWFzBuYcuzGLbJ4Lcx84JHYeZFLxm"]
                 }
                 }],
        "blockhash": "00000000002d1cd9f20be079879aaf2686e1cceedf6df53d1374158c0553e7a8",
        "confirmations": 11720,
        "time": 1392513489,
        "blocktime": 1392513489
    },
    "error": null,
    "id": "curltest"
}
